:060000000A128A11122809
:10000800FE00030EF1000408F2000A08F300831250
:1000180003137F08F4000A128A1131280A128A1180
:100028001528F50183010A128A111A280B1683165E
:10003800031301138B170130860083120313860103
:100048008316031388018312031388011030750285
:100058000318F501750888002A288B1C38280130F8
:10006800F0007008F5078B107408FF0073088A0009
:0E00780072088400710E8300FE0E7E0E0900D9
:02400E003A3F37
:00000001FF
