:060000000A128A11122809
:10000800FE00030EF1000408F2000A08F300831250
:1000180003137F08F4000A128A1151280A128A1160
:100028001528F501F60183010A128A111B288B1580
:100038008B17F0308316031386008312031386018F
:10004800831603138801831203138801751C302853
:100058008312031306143328831203130610F51CA6
:1000680039288312031386143C288312031386103D
:10007800751D42288312031306154528831203139E
:100088000611F51D4B288312031386154E2883127B
:1000980003138611760888002A280B1C6B28751014
:1000A800061E57287514F51083120313861AF514C3
:1000B800751183120313061B7515F51183120313AB
:1000C800861BF5150130F0007008F6070B10740850
:1000D80083120313FF0073088A0072088400710EEC
:0800E8008300FE0E7E0E0900EC
:02400E003A3F37
:00000001FF
