:060000000A128A11122809
:10000800FE00030EF1000408F2000A08F300831250
:1000180003137F08F4000A128A111A280A128A1197
:100028001528F50183010A128A113F280B1D34286F
:100038003C3081000130F0007008F5070A30750681
:10004800031D33280310081C0314031C2F288312D4
:10005800031308143228831203130810F5010B1137
:100068007408FF0073088A0072088400710E830008
:10007800FE0E7E0E090083160313811281110114EE
:10008800811401153C308312031381008B168B17E2
:0E009800831603138801831203138801522874
:02400E003A3F37
:00000001FF
