:060000000A128A11122809
:10000800FE00030EF1000408F2000A08F300831250
:1000180003137F08F4000A128A111A280A128A1197
:100028001528F50183010A128A113A280B1D2F2879
:10003800FF3081000310051C0314031C27288312BA
:10004800031305142A288312031305100130F00046
:100058007008F5070B117408FF0073088A0072080E
:100068008400710E8300FE0E7E0E090083160313B2
:10007800811601168115011081100111FF308312BC
:10008800031381008B168B1710308316031385001A
:1000980006309F00880183120313880175088800C1
:0200A8005228DC
:02400E003A3F37
:00000001FF
